{
  "contractName": "TestUniswap",
  "abi": [
    {
      "inputs": [
        {
          "internalType": "address",
          "name": "_tokenIn",
          "type": "address"
        },
        {
          "internalType": "address",
          "name": "_tokenOut",
          "type": "address"
        },
        {
          "internalType": "uint256",
          "name": "_amountIn",
          "type": "uint256"
        },
        {
          "internalType": "uint256",
          "name": "_amountOutMin",
          "type": "uint256"
        },
        {
          "internalType": "address",
          "name": "_to",
          "type": "address"
        }
      ],
      "name": "swap",
      "outputs": [],
      "stateMutability": "nonpayable",
      "type": "function"
    },
    {
      "inputs": [
        {
          "internalType": "address",
          "name": "tokenIn",
          "type": "address"
        },
        {
          "internalType": "address",
          "name": "tokenOut",
          "type": "address"
        },
        {
          "internalType": "uint24",
          "name": "poolFee",
          "type": "uint24"
        },
        {
          "internalType": "uint256",
          "name": "amountIn",
          "type": "uint256"
        }
      ],
      "name": "swapExactInputSingleHop",
      "outputs": [
        {
          "internalType": "uint256",
          "name": "amountOut",
          "type": "uint256"
        }
      ],
      "stateMutability": "nonpayable",
      "type": "function"
    }
  ],
  "bytecode": "0x608060405234801561001057600080fd5b50610e6f806100206000396000f3fe608060405234801561001057600080fd5b50600436106100365760003560e01c8063938427511461003b578063d5bcb9b51461006b575b600080fd5b61005560048036038101906100509190610843565b610087565b60405161006291906108b9565b60405180910390f35b610085600480360381019061008091906108d4565b6102d5565b005b60008473ffffffffffffffffffffffffffffffffffffffff166323b872dd3330856040518463ffffffff1660e01b81526004016100c69392919061095e565b6020604051808303816000875af11580156100e5573d6000803e3d6000fd5b505050506040513d601f19601f8201168201806040525081019061010991906109cd565b508473ffffffffffffffffffffffffffffffffffffffff1663095ea7b373e592427a0aece92de3edee1f18e0157c05861564846040518363ffffffff1660e01b81526004016101599291906109fa565b6020604051808303816000875af1158015610178573d6000803e3d6000fd5b505050506040513d601f19601f8201168201806040525081019061019c91906109cd565b5060006040518061010001604052808773ffffffffffffffffffffffffffffffffffffffff1681526020018673ffffffffffffffffffffffffffffffffffffffff1681526020018562ffffff1681526020013373ffffffffffffffffffffffffffffffffffffffff16815260200142815260200184815260200160008152602001600073ffffffffffffffffffffffffffffffffffffffff16815250905073e592427a0aece92de3edee1f18e0157c0586156473ffffffffffffffffffffffffffffffffffffffff1663414bf389826040518263ffffffff1660e01b81526004016102879190610b01565b6020604051808303816000875af11580156102a6573d6000803e3d6000fd5b505050506040513d601f19601f820116820180604052508101906102ca9190610b32565b915050949350505050565b8473ffffffffffffffffffffffffffffffffffffffff166323b872dd3330866040518463ffffffff1660e01b81526004016103129392919061095e565b6020604051808303816000875af1158015610331573d6000803e3d6000fd5b505050506040513d601f19601f8201168201806040525081019061035591906109cd565b508473ffffffffffffffffffffffffffffffffffffffff1663095ea7b3737a250d5630b4cf539739df2c5dacb4c659f2488d856040518363ffffffff1660e01b81526004016103a59291906109fa565b6020604051808303816000875af11580156103c4573d6000803e3d6000fd5b505050506040513d601f19601f820116820180604052508101906103e891906109cd565b50606073c02aaa39b223fe8d0a0e5c4f27ead9083c756cc273ffffffffffffffffffffffffffffffffffffffff168673ffffffffffffffffffffffffffffffffffffffff161480610478575073c02aaa39b223fe8d0a0e5c4f27ead9083c756cc273ffffffffffffffffffffffffffffffffffffffff168573ffffffffffffffffffffffffffffffffffffffff16145b1561056c57600267ffffffffffffffff81111561049857610497610b5f565b5b6040519080825280602002602001820160405280156104c65781602001602082028036833780820191505090505b50905085816000815181106104de576104dd610b8e565b5b602002602001019073ffffffffffffffffffffffffffffffffffffffff16908173ffffffffffffffffffffffffffffffffffffffff1681525050848160018151811061052d5761052c610b8e565b5b602002602001019073ffffffffffffffffffffffffffffffffffffffff16908173ffffffffffffffffffffffffffffffffffffffff16815250506106ba565b600367ffffffffffffffff81111561058757610586610b5f565b5b6040519080825280602002602001820160405280156105b55781602001602082028036833780820191505090505b50905085816000815181106105cd576105cc610b8e565b5b602002602001019073ffffffffffffffffffffffffffffffffffffffff16908173ffffffffffffffffffffffffffffffffffffffff168152505073c02aaa39b223fe8d0a0e5c4f27ead9083c756cc2816001815181106106305761062f610b8e565b5b602002602001019073ffffffffffffffffffffffffffffffffffffffff16908173ffffffffffffffffffffffffffffffffffffffff1681525050848160028151811061067f5761067e610b8e565b5b602002602001019073ffffffffffffffffffffffffffffffffffffffff16908173ffffffffffffffffffffffffffffffffffffffff16815250505b737a250d5630b4cf539739df2c5dacb4c659f2488d73ffffffffffffffffffffffffffffffffffffffff166338ed173985858486426040518663ffffffff1660e01b815260040161070f959493929190610c6c565b6000604051808303816000875af115801561072e573d6000803e3d6000fd5b505050506040513d6000823e3d601f19601f820116820180604052508101906107579190610df0565b50505050505050565b6000604051905090565b600080fd5b600080fd5b600073ffffffffffffffffffffffffffffffffffffffff82169050919050565b600061079f82610774565b9050919050565b6107af81610794565b81146107ba57600080fd5b50565b6000813590506107cc816107a6565b92915050565b600062ffffff82169050919050565b6107ea816107d2565b81146107f557600080fd5b50565b600081359050610807816107e1565b92915050565b6000819050919050565b6108208161080d565b811461082b57600080fd5b50565b60008135905061083d81610817565b92915050565b6000806000806080858703121561085d5761085c61076a565b5b600061086b878288016107bd565b945050602061087c878288016107bd565b935050604061088d878288016107f8565b925050606061089e8782880161082e565b91505092959194509250565b6108b38161080d565b82525050565b60006020820190506108ce60008301846108aa565b92915050565b600080600080600060a086880312156108f0576108ef61076a565b5b60006108fe888289016107bd565b955050602061090f888289016107bd565b94505060406109208882890161082e565b93505060606109318882890161082e565b9250506080610942888289016107bd565b9150509295509295909350565b61095881610794565b82525050565b6000606082019050610973600083018661094f565b610980602083018561094f565b61098d60408301846108aa565b949350505050565b60008115159050919050565b6109aa81610995565b81146109b557600080fd5b50565b6000815190506109c7816109a1565b92915050565b6000602082840312156109e3576109e261076a565b5b60006109f1848285016109b8565b91505092915050565b6000604082019050610a0f600083018561094f565b610a1c60208301846108aa565b9392505050565b610a2c81610794565b82525050565b610a3b816107d2565b82525050565b610a4a8161080d565b82525050565b610a5981610774565b82525050565b61010082016000820151610a766000850182610a23565b506020820151610a896020850182610a23565b506040820151610a9c6040850182610a32565b506060820151610aaf6060850182610a23565b506080820151610ac26080850182610a41565b5060a0820151610ad560a0850182610a41565b5060c0820151610ae860c0850182610a41565b5060e0820151610afb60e0850182610a50565b50505050565b600061010082019050610b176000830184610a5f565b92915050565b600081519050610b2c81610817565b92915050565b600060208284031215610b4857610b4761076a565b5b6000610b5684828501610b1d565b91505092915050565b7f4e487b7100000000000000000000000000000000000000000000000000000000600052604160045260246000fd5b7f4e487b7100000000000000000000000000000000000000000000000000000000600052603260045260246000fd5b600081519050919050565b600082825260208201905092915050565b6000819050602082019050919050565b6000610bf58383610a23565b60208301905092915050565b6000602082019050919050565b6000610c1982610bbd565b610c238185610bc8565b9350610c2e83610bd9565b8060005b83811015610c5f578151610c468882610be9565b9750610c5183610c01565b925050600181019050610c32565b5085935050505092915050565b600060a082019050610c8160008301886108aa565b610c8e60208301876108aa565b8181036040830152610ca08186610c0e565b9050610caf606083018561094f565b610cbc60808301846108aa565b9695505050505050565b600080fd5b6000601f19601f8301169050919050565b610ce582610ccb565b810181811067ffffffffffffffff82111715610d0457610d03610b5f565b5b80604052505050565b6000610d17610760565b9050610d238282610cdc565b919050565b600067ffffffffffffffff821115610d4357610d42610b5f565b5b602082029050602081019050919050565b600080fd5b6000610d6c610d6784610d28565b610d0d565b90508083825260208201905060208402830185811115610d8f57610d8e610d54565b5b835b81811015610db85780610da48882610b1d565b845260208401935050602081019050610d91565b5050509392505050565b600082601f830112610dd757610dd6610cc6565b5b8151610de7848260208601610d59565b91505092915050565b600060208284031215610e0657610e0561076a565b5b600082015167ffffffffffffffff811115610e2457610e2361076f565b5b610e3084828501610dc2565b9150509291505056fea26469706673582212204392b4cad752036a33df50487756e398b32fcca203d7d68852ad4470b800bc1164736f6c634300080b0033",
  "immutableReferences": {},
  "source": "// SPDX-License-Identifier: MIT\r\npragma solidity ^0.8;\r\n\r\nimport \"@openzeppelin/contracts/token/ERC20/IERC20.sol\";\r\nimport \"./interfaces/Uniswap.sol\";\r\nimport \"./interfaces/UniswapV3.sol\";\r\n\r\ncontract TestUniswap {\r\n    address private constant UNISWAP_V2_ROUTER =\r\n    0x7a250d5630B4cF539739dF2C5dAcb4c659F2488D;\r\n    address private constant UNISWAP_V3_ROUTER = 0xE592427A0AEce92De3Edee1F18E0157C05861564;\r\n  address private constant WETH = 0xC02aaA39b223FE8D0A0e5C4F27eAD9083C756Cc2;\r\n\r\n  IUniswapV3Router constant V3router =\r\n        IUniswapV3Router(0xE592427A0AEce92De3Edee1F18E0157C05861564);\r\n\r\n    function swap(\r\n    address _tokenIn,\r\n    address _tokenOut,\r\n    uint _amountIn,\r\n    uint _amountOutMin,\r\n    address _to\r\n  ) external {\r\n    IERC20(_tokenIn).transferFrom(msg.sender, address(this), _amountIn);\r\n    IERC20(_tokenIn).approve(UNISWAP_V2_ROUTER, _amountIn);\r\n\r\n    address[] memory path;\r\n    if (_tokenIn == WETH || _tokenOut == WETH) {\r\n      path = new address[](2);\r\n      path[0] = _tokenIn;\r\n      path[1] = _tokenOut;\r\n    } else {\r\n      path = new address[](3);\r\n      path[0] = _tokenIn;\r\n      path[1] = WETH;\r\n      path[2] = _tokenOut;\r\n    }\r\n\r\n    IUniswapV2Router(UNISWAP_V2_ROUTER).swapExactTokensForTokens(\r\n      _amountIn,\r\n      _amountOutMin,\r\n      path,\r\n      _to,\r\n      block.timestamp\r\n    );\r\n  }\r\n\r\n  function swapExactInputSingleHop(\r\n        address tokenIn,\r\n        address tokenOut,\r\n        uint24 poolFee,\r\n        uint amountIn\r\n    ) external returns (uint amountOut) {\r\n        IERC20(tokenIn).transferFrom(msg.sender, address(this), amountIn);\r\n        IERC20(tokenIn).approve(address(UNISWAP_V3_ROUTER), amountIn);\r\n\r\n        IUniswapV3Router.ExactInputSingleParams memory params = IUniswapV3Router\r\n            .ExactInputSingleParams({\r\n                tokenIn: tokenIn,\r\n                tokenOut: tokenOut,\r\n                fee: poolFee,\r\n                recipient: msg.sender,\r\n                deadline: block.timestamp,\r\n                amountIn: amountIn,\r\n                amountOutMinimum: 0,\r\n                sqrtPriceLimitX96: 0\r\n            });\r\n\r\n        amountOut = V3router.exactInputSingle(params);\r\n    }\r\n}",
  "sourcePath": "D:\\BlockChain\\RealTimeProjects\\GitRepository\\Defi - smartContractProgrammer\\contracts\\TestUniswap.sol",
  "compiler": {
    "name": "solc",
    "version": "0.8.11+commit.d7f03943.Emscripten.clang"
  },
  "schemaVersion": "3.4.4",
  "updatedAt": "2023-06-17T12:29:14.381Z",
  "devdoc": {
    "kind": "dev",
    "methods": {},
    "version": 1
  },
  "userdoc": {
    "kind": "user",
    "methods": {},
    "version": 1
  }
}